:100000000C949E000C94BB000C94BB000C94BB00A1
:100010000C94BB000C94BB000C94BB000C94A70187
:100020000C94BB000C94BB000C94BB000C94BB0064
:100030000C94BB000C94BB000C94BB000C94BB0054
:100040000C9403020C94BB000C94BB000C94BB00FA
:100050000C94BB000C94BB000C94BB000C94BB0034
:100060000C94BB000C94BB0007634236B79BD8A727
:100070001A39685618AEBAAB558C1D3CB7CC5763CD
:10008000BD6DEDFD753EF6177231BF000000803F7B
:1000900008000000BE922449123EABAAAA2ABECD97
:1000A000CCCC4C3E00000080BEABAAAAAA3E000009
:1000B0000000BF000000803F000000000008417801
:1000C000D3BB4387D1133D190E3CC3BD4282AD2B38
:1000D0003E68EC8276BED98FE1A93E4C80EFFFBE30
:1000E00001C4FF7F3F000000000000000008000284
:1000F00001000003040700000000000000000200EF
:10010000000000250028002B00000000002400272C
:10011000002A00040404040404040402020202028B
:1001200002030303030303010204081020408001BB
:1001300002040810200102040810200011241FBE30
:10014000CFEFD8E0DEBFCDBF13E0A0E0B1E0E8E242
:10015000F2E102C005900D92AE31B107D9F723E06C
:10016000AEE1B3E001C01D92A034B207E1F70E94F6
:100170004D020C9412090C940000ECE2F1E0249181
:10018000E8E1F1E08491882399F090E0880F991FCD
:10019000FC01E75FFE4FA591B491FC01E150FF4FD8
:1001A000859194918FB7F894EC91E22BEC938FBFEB
:1001B00008959091000189130DC0EEEFF0E0E491F5
:1001C0009FEF90930001E13009F431C068F1E23013
:1001D00009F433C090E0FC01E651FF4F2491FC018B
:1001E000E95DFE4F3491FC01ED5EFE4FE491EE239C
:1001F000D1F0222351F0233009F43AC078F52130B0
:1002000009F43CC0223009F43DC0F0E0EE0FFF1FBE
:10021000E150FF4FA591B4918FB7F894EC913095D0
:100220003E233C938FBF089510926E00D3CF9091E0
:100230006F009D7F90936F00CDCF909170009D7F58
:100240009093700091E09093B0009091B100987FEE
:1002500094609093B1001092B300BCCF2730A9F006
:100260002830C9F0243089F6809180008F7D03C04A
:10027000809180008F7780938000C7CF84B58F777F
:1002800084BDC3CF84B58F7DFBCF8091B0008F77C5
:100290008093B000BACF8091B0008F7DF9CF3FB787
:1002A000F8948091230390912403A0912503B091A9
:1002B000260326B5A89B05C02F3F19F00196A11D66
:1002C000B11D3FBFBA2FA92F982F8827BC01CD01A0
:1002D000620F711D811D911D42E0660F771F881FFF
:1002E000991F4A95D1F708958F929F92AF92BF922E
:1002F000CF92DF92EF92FF926B017C010E944F013F
:100300004B015C01C114D104E104F104B9F00E9475
:100310004F01681979098A099B09683E7340810574
:10032000910580F321E0C21AD108E108F10888EEB6
:10033000880E83E0981EA11CB11CE4CFFF90EF90C3
:10034000DF90CF90BF90AF909F908F9008951F92B5
:100350000F920FB60F9211242F933F934F935F93F9
:100360006F937F938F939F93AF93BF93EF93FF937D
:1003700080912C0390912D03A0912E03B0912F0317
:10038000892B8A2B8B2BD1F190912703E0912803A5
:10039000F091290380818927808380912C0390919B
:1003A0002D03A0912E03B0912F03181619061A06DB
:1003B0001B069CF480912C0390912D03A0912E0399
:1003C000B0912F030197A109B10980932C03909359
:1003D0002D03A0932E03B0932F03FF91EF91BF91B4
:1003E000AF919F918F917F916F915F914F913F91CD
:1003F0002F910F900FBE0F901F90189580910001C4
:100400000E94D900EACF1F920F920FB60F921124CB
:100410002F933F938F939F93AF93BF9380911F032D
:1004200090912003A0912103B091220330911E03EB
:1004300023E0230F2D3758F50196A11DB11D209300
:100440001E0380931F0390932003A0932103B09376
:1004500022038091230390912403A0912503B0915E
:1004600026030196A11DB11D8093230390932403BD
:10047000A0932503B0932603BF91AF919F918F91D5
:100480003F912F910F900FBE0F901F90189526E867
:10049000230F0296A11DB11DD2CFCF93DF93CDB70D
:1004A000DEB72A970FB6F894DEBF0FBECDBF7894A3
:1004B00084B5826084BD84B5816084BD85B5826069
:1004C00085BD85B5816085BD80916E00816080931A
:1004D0006E00109281008091810082608093810083
:1004E0008091810081608093810080918000816093
:1004F000809380008091B10084608093B1008091EE
:10050000B00081608093B00080917A008460809315
:100510007A0080917A00826080937A0080917A00DC
:10052000816080937A0080917A00806880937A005D
:100530001092C10080E090E0A0EFB2E48093380315
:1005400090933903A0933A03B0933B0310923C037A
:1005500010923D0310923E0310923F030E94BD0093
:1005600078E4472E78EE572E66246394712C0DE9BB
:1005700012E081E092E09E838D83A1E8B1E0BC832C
:10058000AB83E1E0F1E0FA83E98368E1262E61E0E4
:10059000362ED801CD90DD90ED90FD908D01ED814E
:1005A000FE816191719181919191FE83ED830E9411
:1005B000E6059B01AC0160E070E080E090E40E9401
:1005C000DF066F83788789879A87AB81BC816D91BD
:1005D0007D918D919D91BC83AB8380903C039090E5
:1005E0003D03A0903E03B0903F03680D791D8A1D26
:1005F0009B1D0E94E60520E030E040E451E40E94AB
:1006000043059B01AC0160E070E080E090E40E9453
:10061000DF064B015C01B1E0CB1AD108F601EE0F09
:10062000FF1FEE0FFF1FEF57FD4F208131814281E9
:1006300053816F81788589859A850E947206A5010C
:1006400094010E9472060E94B5056B018091000121
:10065000853089F4EEEFF0E0F491FF83F7FDD8C127
:100660000E94BD00FF81FF2309F439C08F818230D1
:1006700009F0ABC034C08F3F09F0CAC185E0809358
:100680000001EEEFF0E0F491FF83FF3F09F4C0C1F9
:10069000F13009F47BC048F0F23009F4D5C0FF8195
:1006A000F7FDB6C10E94BD00E1CF14BC15BC84B5F6
:1006B000826084BD85B5816085BDF1018491E82F9C
:1006C000F0E0EE0FFF1FE150FF4F85919491ECE2B7
:1006D000F1E0849180932B030E94BD001F82F12CD6
:1006E000E12C60E072E18AE790E0A70196010E94A8
:1006F000D10849015A01DA01C9010197A109B109DB
:100700008F3F9105A105B10509F00CF4FFC060E42D
:1007100072E48FE090E0A70196010E94D108215079
:100720003109410951099F81923009F0B1C082E03D
:100730002F3F31054105510509F00CF459C160E91D
:1007400070ED83E090E0A70196010E94D10821504E
:1007500031094109510983E02F3F31054105510518
:1007600009F00CF445C1C301B201A70196010E9432
:10077000D10821503109410951092F3F3105410567
:10078000510511F00CF0A1C084E032C1109280003C
:100790001092810080918100886080938100809117
:1007A0008100816080938100F1018491E82FF0E065
:1007B000EE0FFF1FE150FF4F85919491ECE2F1E0C5
:1007C000849180932A030E94BD00F12CE12C60E00B
:1007D00072E18AE790E0A70196010E94D1082150BA
:1007E00031094109510991E021153105F1E04F0727
:1007F00051055CF0C301B201A70196010E94D10826
:10080000215031094109510993E08F81813009F06C
:10081000F5C080918100887F892B8093810030937F
:100820008900209388008FEF9FEFDC0180933003D5
:1008300090933103A0933203B093330380916F0000
:10084000826080936F00E4C01092B0001092B100FB
:100850008091B00082608093B0008091B10081608F
:100860008093B100F1018491E82FF0E0EE0FFF1FBB
:10087000E150FF4F85919491909329038093280331
:10088000ECE2F1E08491809327030E94BD0027CF22
:100890002F3F31054105510509F00CF452C0C30149
:1008A000B201A70196010E94D108215031094109E6
:1008B0005109AF81AA2309F46FC02F3F31054105CB
:1008C000510509F00CF460CF6FC064E274EF80E072
:1008D00090E0A70196010E94D108215031094109F9
:1008E000510985E02F3F31054105510509F008F414
:1008F0007FC062E17AE780E090E0A70196010E9464
:10090000D10821503109410951095DC09C0181E0A4
:10091000EF81E1116DC095B5987F892B85BD27BD0D
:100920008FEF9FEFDC018093340390933503A09306
:100930003603B093370380916E00826080936E001F
:1009400067C082E0E5CF2093B3008FEF9FEFDC011B
:1009500080932C0390932D03A0932E03B0932F0329
:100960008091700082608093700052C084E02F3FBD
:1009700031054105510579F270F29AE0B594A794DA
:10098000979487949A95D1F7A50194012150310944
:100990004109510985E0BFCF83E02F3F3105410573
:1009A000510509F00CF4B7CF62E17AE780E090E0FE
:1009B000A70196010E94D10821503109410951092E
:1009C000BF81BB2399F286E02F3F310541055105D8
:1009D00079F070F08AE0B594A794979487948A95FB
:1009E000D1F7A5019401215031094109510987E04E
:1009F0009091B100987F892B8093B1009F819130B5
:100A000009F40DCF923009F49ECF992309F487CFD2
:100A1000209138033091390340913A0350913B03C0
:100A2000A981BA81CD90DD90ED90FD90BA83A98324
:100A300060E070E080E792E40E94430520E030E04F
:100A40004AE754E40E947206A70196010E947206CA
:100A50000E94B5050E94740185E00E94D9006AE0F9
:100A600070E080E090E00E947401EDE1F3E0E017B7
:100A7000F10709F08ECD80E090E0892B09F477CD65
:100A80000E94000074CD0E9457050C9438060E9405
:100A9000310658F00E942A0640F029F45F3F29F001
:100AA0000C94210651110C946C060C9427060E949C
:100AB000490668F39923B1F3552391F3951B550B20
:100AC000BB27AA2762177307840738F09F5F5F4F21
:100AD000220F331F441FAA1FA9F335D00E2E3AF060
:100AE000E0E832D091505040E695001CCAF72BD078
:100AF000FE2F29D0660F771F881FBB1F26173707C9
:100B00004807AB07B0E809F0BB0B802DBF01FF27FA
:100B100093585F4F3AF09E3F510578F00C942106B0
:100B20000C946C065F3FE4F3983ED4F3869577957A
:100B30006795B795F7959F5FC9F7880F911D9695B3
:100B4000879597F90895E1E0660F771F881FBB1F0F
:100B5000621773078407BA0720F0621B730B840BBC
:100B6000BA0BEE1F88F7E09508950E94510688F0B1
:100B70009F5798F0B92F9927B751B0F0E1F0660F61
:100B8000771F881F991F1AF0BA95C9F714C0B130A2
:100B900091F00E946B06B1E008950C946B06672FEC
:100BA000782F8827B85F39F0B93FCCF386957795D1
:100BB0006795B395D9F73EF49095809570956195BA
:100BC0007F4F8F4F9F4F0895E89409C097FB3EF4E5
:100BD00090958095709561957F4F8F4F9F4F99238A
:100BE000A9F0F92F96E9BB279395F6958795779508
:100BF0006795B795F111F8CFFAF4BB0F11F460FFC8
:100C00001BC06F5F7F4F8F4F9F4F16C0882311F01F
:100C100096E911C0772321F09EE8872F762F05C033
:100C2000662371F096E8862F70E060E02AF09A95CE
:100C3000660F771F881FDAF7880F9695879597F9C3
:100C4000089597F99F6780E870E060E008959FEF4E
:100C500080EC089500240A94161617061806090653
:100C6000089500240A941216130614060506089522
:100C7000092E0394000C11F4882352F0BB0F40F4AA
:100C8000BF2B11F460FF04C06F5F7F4F8F4F9F4FEA
:100C9000089557FD9058440F551F59F05F3F71F06C
:100CA0004795880F97FB991F61F09F3F79F08795D3
:100CB0000895121613061406551FF2CF4695F1DF5C
:100CC00008C0161617061806991FF1CF86957105EC
:100CD000610508940895E894BB2766277727CB0120
:100CE00097F908950E9485060C9438060E942A06FA
:100CF00038F00E94310620F0952311F00C94210663
:100D00000C94270611240C946C060E94490670F37B
:100D1000959FC1F3950F50E0551F629FF001729FA0
:100D2000BB27F00DB11D639FAA27F00DB11DAA1FAF
:100D3000649F6627B00DA11D661F829F2227B00DFC
:100D4000A11D621F739FB00DA11D621F839FA00D87
:100D5000611D221F749F3327A00D611D231F849FD7
:100D6000600D211D822F762F6A2F11249F5750402E
:100D70009AF0F1F088234AF0EE0FFF1FBB1F661FA9
:100D8000771F881F91505040A9F79E3F510580F072
:100D90000C9421060C946C065F3FE4F3983ED4F368
:100DA000869577956795B795F795E7959F5FC1F716
:100DB000FE2B880F911D9695879597F90895FA0156
:100DC000EE0FFF1F309621053105A1F16115710568
:100DD00061F48038BFE39B0749F16894903881053E
:100DE00061F08038BFEF9B0741F099234AF5FF3F40
:100DF000E1053105210519F1E8940894E795D90139
:100E0000AA2329F4AB2FBE2FF85FD0F310C0FF5FE9
:100E100070F4A695E0F7F73950F019F0FF3A38F47E
:100E20009F779F930DD00F9007FC9058089546F040
:100E30000C94270660E070E080E89FE308954FE798
:100E40009F775F934F933F932F930E94DA072F91E1
:100E50003F914F915F910E9472060C94370729F4DD
:100E600016F00C9421060C946B060C9427060E9435
:100E70005106A8F39638A0F707F80F92E8942BE3F1
:100E80003AEA48EB5FE70E9488060F920F920F92B2
:100E90004DB75EB70F920E942208E8E6F0E00E948C
:100EA00069074F915F91EF91FF91E595EE1FFF1F4D
:100EB00049F0FE57E0684427EE0F441FFA95E1F72A
:100EC0004195550B0E949C070F9007FE0C949007CC
:100ED0000895DF93CF931F930F93FF92EF92DF92CA
:100EE0007B018C01689406C0DA2EEF010E94850612
:100EF000FE01E894A5912591359145915591A6F370
:100F0000EF010E946E08FE019701A801DA9469F7CB
:100F1000DF90EF90FF900F911F91CF91DF91089597
:100F20009B01AC0160E070E080E89FE30C94430516
:100F30000C9421060C94C3080E945106D8F39923FF
:100F4000C9F3940F511DA3F39150504094F059F000
:100F5000882332F0660F771F881F91505040C1F7E9
:100F60009E3F51052CF7880F911D9695879597F90F
:100F700008955F3FACF0983E9CF0BB27869577952F
:100F80006795B79508F4B1609395C1F7BB0F58F713
:100F900011F460FFE8CF6F5F7F4F8F4F9F4FE3CF1C
:100FA0000C946C0616F00C94C3080C9427066894F5
:100FB0000C9421060E945106A8F39923C1F3AEF3C5
:100FC000DF93CF931F930F93FF92C92FDD278823C1
:100FD0002AF02197660F771F881FDAF720E030E0AC
:100FE00040E85FEB9FE3883920F0803E38F021969F
:100FF0008F770E945708E0E9F0E004C00E9457088C
:10100000EDEBF0E00E9469078B01BE01EC01FB2EC5
:101010006F5771097595771F880B990B0E94E6052C
:1010200028E132E741E35FE30E948506AF2D980196
:10103000AE01FF900F911F91CF91DF910E946E083A
:101040000C943806FA01DC01AA0FBB1F9B01AC010E
:10105000BF5728F4222733274427507820C0B751A0
:1010600090F4AB2F0024469537952795011CA39546
:10107000D2F3002071F0220F331F441FB395DAF32F
:101080000ED00C94560861307105A0E88A07B94665
:1010900030F49B01AC01662777278827907830963B
:1010A00021F0208331834283538308955058BB2716
:1010B000AA270E946E080C9438060E942A0638F06F
:1010C0000E94310620F039F49F3F19F426F40C9465
:1010D00027060EF4E095E7FB0C942106E92F0E9409
:1010E000490658F3BA17620773078407950720F07B
:1010F00079F4A6F50C946B060EF4E0950B2EBA2F3E
:10110000A02D0B01B90190010C01CA01A00111240D
:10111000FF27591B99F0593F50F4503E68F11A16B9
:10112000F040A22F232F342F4427585FF3CF46954A
:1011300037952795A795F0405395C9F77EF41F166C
:10114000BA0B620B730B840BBAF09150A1F0FF0F36
:10115000BB1F661F771F881FC2F70EC0BA0F621F22
:10116000731F841F48F4879577956795B795F79512
:101170009E3F08F0B0CF9395880F08F09927EE0FA7
:101180009795879508959F3F31F0915020F487956A
:1011900077956795B795880F911D9695879597F9DF
:1011A0000895052E97FB1EF400940E94E80857FD51
:1011B00007D00E94F00807FC03D04EF40C94E80816
:1011C00050954095309521953F4F4F4F5F4F089573
:1011D00090958095709561957F4F8F4F9F4F0895A3
:1011E000A1E21A2EAA1BBB1BFD010DC0AA1FBB1F2B
:1011F000EE1FFF1FA217B307E407F50720F0A21B9D
:10120000B30BE40BF50B661F771F881F991F1A9409
:1012100069F760957095809590959B01AC01BD0133
:08122000CF010895F894FFCFFF
:10122800FF0000803F0000803F0000803F000080FA
:101238003F0000803F0000803F0000803F000080AA
:101248003F0000803F0000803F0000004000008019
:101258003F0000803F000000400000003F00000009
:101268003F0000003F0000003F0000803F0000807A
:101278003F0000003F0000003F0000003F0000006A
:101288003F0000803F0000803F0000803F0000805A
:101298003F000000400000803F0000803F00000049
:1012A80040000000000000000000000000000000F6
:1012B8000000000000000000000000000000000026
:1012C8000000000000000000000000000000000016
:1012D8000000000000000000000000000000000006
:1012E80000000000000000000000000000000000F6
:1012F80000000000000000000000000000000000E6
:1013080000000000000000000000000000000000D5
:1013180000000000000000000000000000000000C5
:1013280000000000000000000000000000000000B5
:1013380000000000000000000000000000000000A5
:101348000000000000000000000000000000000095
:101358000000000000000000000000000000000085
:101368000000000000000000000000000000000075
:101378000000000000000000000000000000000065
:1013880000000000000000000000000000FFFFFF58
:10139800FF0000000000000000FFFFFFFF0000004A
:1013A8000000D0824466D6924400D0A444CD9CAEBE
:1013B800440000C4440000DC4400F0F6440100008E
:1013C800000200000003000000010000000100000E
:1013D80000020000000300000001000000030000FC
:1013E80000040000000500000003000000040000E5
:1013F80000050000000500000006000000050000D0
:1014080000040000000300000001000000050000C7
:1014180000060000000500000004000000030000B2
:1014280000010000000200000005000000010000AB
:0E14380000020000000500000001000000009E
:107E0000112484B714BE81FFF0D085E080938100F7
:107E100082E08093C00088E18093C10086E0809377
:107E2000C20080E18093C4008EE0C9D0259A86E02C
:107E300020E33CEF91E0309385002093840096BBD3
:107E4000B09BFECF1D9AA8958150A9F7CC24DD24C4
:107E500088248394B5E0AB2EA1E19A2EF3E0BF2EE7
:107E6000A2D0813461F49FD0082FAFD0023811F036
:107E7000013811F484E001C083E08DD089C08234E0
:107E800011F484E103C0853419F485E0A6D080C0E4
:107E9000853579F488D0E82EFF2485D0082F10E0AE
:107EA000102F00270E291F29000F111F8ED06801E7
:107EB0006FC0863521F484E090D080E0DECF843638
:107EC00009F040C070D06FD0082F6DD080E0C81688
:107ED00080E7D80618F4F601B7BEE895C0E0D1E017
:107EE00062D089930C17E1F7F0E0CF16F0E7DF06D8
:107EF00018F0F601B7BEE89568D007B600FCFDCFD4
:107F0000A601A0E0B1E02C9130E011968C91119780
:107F100090E0982F8827822B932B1296FA010C0160
:107F200087BEE89511244E5F5F4FF1E0A038BF0790
:107F300051F7F601A7BEE89507B600FCFDCF97BE46
:107F4000E89526C08437B1F42ED02DD0F82E2BD052
:107F50003CD0F601EF2C8F010F5F1F4F84911BD097
:107F6000EA94F801C1F70894C11CD11CFA94CF0C13
:107F7000D11C0EC0853739F428D08EE10CD085E9AC
:107F80000AD08FE07ACF813511F488E018D01DD067
:107F900080E101D065CF982F8091C00085FFFCCF94
:107FA0009093C60008958091C00087FFFCCF809118
:107FB000C00084FD01C0A8958091C6000895E0E648
:107FC000F0E098E1908380830895EDDF803219F02E
:107FD00088E0F5DFFFCF84E1DECF1F93182FE3DFCA
:107FE0001150E9F7F2DF1F91089580E0E8DFEE27F6
:047FF000FF270994CA
:027FFE00040479
:0400000300007E007B
:00000001FF
